{
  "contractName": "VirtualLands",
  "abi": [
    {
      "constant": false,
      "inputs": [
        {
          "name": "_to",
          "type": "address"
        },
        {
          "name": "_tokenId",
          "type": "uint256"
        }
      ],
      "name": "transferFrom",
      "outputs": [],
      "payable": false,
      "stateMutability": "nonpayable",
      "type": "function"
    },
    {
      "constant": true,
      "inputs": [],
      "name": "name",
      "outputs": [
        {
          "name": "",
          "type": "string"
        }
      ],
      "payable": false,
      "stateMutability": "view",
      "type": "function"
    },
    {
      "constant": false,
      "inputs": [
        {
          "name": "_to",
          "type": "address"
        },
        {
          "name": "_tokenId",
          "type": "uint256"
        }
      ],
      "name": "approve",
      "outputs": [],
      "payable": false,
      "stateMutability": "nonpayable",
      "type": "function"
    },
    {
      "constant": true,
      "inputs": [
        {
          "name": "",
          "type": "uint256"
        }
      ],
      "name": "tokenToDescription",
      "outputs": [
        {
          "name": "",
          "type": "string"
        }
      ],
      "payable": false,
      "stateMutability": "view",
      "type": "function"
    },
    {
      "constant": true,
      "inputs": [],
      "name": "totalSupply",
      "outputs": [
        {
          "name": "_totalSupply",
          "type": "uint256"
        }
      ],
      "payable": false,
      "stateMutability": "view",
      "type": "function"
    },
    {
      "constant": true,
      "inputs": [
        {
          "name": "_tokenId",
          "type": "uint256"
        }
      ],
      "name": "approvedFor",
      "outputs": [
        {
          "name": "_approved",
          "type": "address"
        }
      ],
      "payable": false,
      "stateMutability": "view",
      "type": "function"
    },
    {
      "constant": true,
      "inputs": [
        {
          "name": "",
          "type": "uint256"
        }
      ],
      "name": "tokenToPixelsColors",
      "outputs": [
        {
          "name": "",
          "type": "string"
        }
      ],
      "payable": false,
      "stateMutability": "view",
      "type": "function"
    },
    {
      "constant": true,
      "inputs": [],
      "name": "cnName",
      "outputs": [
        {
          "name": "",
          "type": "string"
        }
      ],
      "payable": false,
      "stateMutability": "view",
      "type": "function"
    },
    {
      "constant": true,
      "inputs": [
        {
          "name": "_owner",
          "type": "address"
        }
      ],
      "name": "tokensOf",
      "outputs": [
        {
          "name": "",
          "type": "uint256[]"
        }
      ],
      "payable": false,
      "stateMutability": "view",
      "type": "function"
    },
    {
      "constant": true,
      "inputs": [
        {
          "name": "",
          "type": "uint256"
        }
      ],
      "name": "tokenToSalePrice",
      "outputs": [
        {
          "name": "",
          "type": "uint256"
        }
      ],
      "payable": false,
      "stateMutability": "view",
      "type": "function"
    },
    {
      "constant": true,
      "inputs": [
        {
          "name": "_tokenId",
          "type": "uint256"
        }
      ],
      "name": "ownerOf",
      "outputs": [
        {
          "name": "_owner",
          "type": "address"
        }
      ],
      "payable": false,
      "stateMutability": "view",
      "type": "function"
    },
    {
      "constant": true,
      "inputs": [
        {
          "name": "_owner",
          "type": "address"
        }
      ],
      "name": "balanceOf",
      "outputs": [
        {
          "name": "_balance",
          "type": "uint256"
        }
      ],
      "payable": false,
      "stateMutability": "view",
      "type": "function"
    },
    {
      "constant": true,
      "inputs": [],
      "name": "owner",
      "outputs": [
        {
          "name": "",
          "type": "address"
        }
      ],
      "payable": false,
      "stateMutability": "view",
      "type": "function"
    },
    {
      "constant": true,
      "inputs": [],
      "name": "symbol",
      "outputs": [
        {
          "name": "",
          "type": "string"
        }
      ],
      "payable": false,
      "stateMutability": "view",
      "type": "function"
    },
    {
      "constant": false,
      "inputs": [
        {
          "name": "_tokenId",
          "type": "uint256"
        }
      ],
      "name": "removeApproval",
      "outputs": [],
      "payable": false,
      "stateMutability": "nonpayable",
      "type": "function"
    },
    {
      "constant": false,
      "inputs": [
        {
          "name": "_to",
          "type": "address"
        },
        {
          "name": "_tokenId",
          "type": "uint256"
        }
      ],
      "name": "transfer",
      "outputs": [],
      "payable": false,
      "stateMutability": "nonpayable",
      "type": "function"
    },
    {
      "constant": true,
      "inputs": [
        {
          "name": "",
          "type": "address"
        }
      ],
      "name": "BalanceOfEther",
      "outputs": [
        {
          "name": "",
          "type": "uint256"
        }
      ],
      "payable": false,
      "stateMutability": "view",
      "type": "function"
    },
    {
      "constant": true,
      "inputs": [
        {
          "name": "",
          "type": "uint256"
        }
      ],
      "name": "tokenToLink",
      "outputs": [
        {
          "name": "",
          "type": "string"
        }
      ],
      "payable": false,
      "stateMutability": "view",
      "type": "function"
    },
    {
      "inputs": [],
      "payable": false,
      "stateMutability": "nonpayable",
      "type": "constructor"
    },
    {
      "anonymous": false,
      "inputs": [
        {
          "indexed": false,
          "name": "_tokenId",
          "type": "uint256"
        },
        {
          "indexed": false,
          "name": "_price",
          "type": "uint256"
        }
      ],
      "name": "EmitUpForSale",
      "type": "event"
    },
    {
      "anonymous": false,
      "inputs": [
        {
          "indexed": false,
          "name": "_tokenId",
          "type": "uint256"
        },
        {
          "indexed": false,
          "name": "_at",
          "type": "uint256"
        },
        {
          "indexed": false,
          "name": "_by",
          "type": "address"
        }
      ],
      "name": "EmitBought",
      "type": "event"
    },
    {
      "anonymous": false,
      "inputs": [
        {
          "indexed": false,
          "name": "_tokenId",
          "type": "uint256"
        }
      ],
      "name": "EmitSaleOfferRemoved",
      "type": "event"
    },
    {
      "anonymous": false,
      "inputs": [
        {
          "indexed": false,
          "name": "_initialPrice",
          "type": "uint256"
        }
      ],
      "name": "EmitSetInitialPrice",
      "type": "event"
    },
    {
      "anonymous": false,
      "inputs": [
        {
          "indexed": false,
          "name": "_tokenId",
          "type": "uint256"
        }
      ],
      "name": "EmitChangedPixelsColors",
      "type": "event"
    },
    {
      "anonymous": false,
      "inputs": [
        {
          "indexed": false,
          "name": "_tokenId",
          "type": "uint256"
        }
      ],
      "name": "EmitChangedDescription",
      "type": "event"
    },
    {
      "anonymous": false,
      "inputs": [
        {
          "indexed": false,
          "name": "_tokenId",
          "type": "uint256"
        }
      ],
      "name": "EmitChangedLink",
      "type": "event"
    },
    {
      "anonymous": false,
      "inputs": [
        {
          "indexed": true,
          "name": "_from",
          "type": "address"
        },
        {
          "indexed": true,
          "name": "_to",
          "type": "address"
        },
        {
          "indexed": false,
          "name": "_tokenId",
          "type": "uint256"
        }
      ],
      "name": "Transfer",
      "type": "event"
    },
    {
      "anonymous": false,
      "inputs": [
        {
          "indexed": true,
          "name": "_owner",
          "type": "address"
        },
        {
          "indexed": true,
          "name": "_approved",
          "type": "address"
        },
        {
          "indexed": false,
          "name": "_tokenId",
          "type": "uint256"
        }
      ],
      "name": "Approval",
      "type": "event"
    },
    {
      "constant": true,
      "inputs": [],
      "name": "totalSupplyLimit",
      "outputs": [
        {
          "name": "",
          "type": "uint256"
        }
      ],
      "payable": false,
      "stateMutability": "view",
      "type": "function"
    },
    {
      "constant": true,
      "inputs": [],
      "name": "initialPrice",
      "outputs": [
        {
          "name": "",
          "type": "uint256"
        }
      ],
      "payable": false,
      "stateMutability": "view",
      "type": "function"
    },
    {
      "constant": false,
      "inputs": [
        {
          "name": "_tokenId",
          "type": "uint256"
        }
      ],
      "name": "initialBuyToken",
      "outputs": [],
      "payable": true,
      "stateMutability": "payable",
      "type": "function"
    },
    {
      "constant": false,
      "inputs": [
        {
          "name": "_initialPrice",
          "type": "uint256"
        }
      ],
      "name": "setInitialPrice",
      "outputs": [],
      "payable": false,
      "stateMutability": "nonpayable",
      "type": "function"
    },
    {
      "constant": false,
      "inputs": [
        {
          "name": "_tokenId",
          "type": "uint256"
        },
        {
          "name": "_newDescription",
          "type": "string"
        }
      ],
      "name": "setTokenDescription",
      "outputs": [],
      "payable": false,
      "stateMutability": "nonpayable",
      "type": "function"
    },
    {
      "constant": false,
      "inputs": [
        {
          "name": "_tokenId",
          "type": "uint256"
        },
        {
          "name": "_newLink",
          "type": "string"
        }
      ],
      "name": "setTokenLink",
      "outputs": [],
      "payable": false,
      "stateMutability": "nonpayable",
      "type": "function"
    },
    {
      "constant": false,
      "inputs": [],
      "name": "withdraw",
      "outputs": [],
      "payable": false,
      "stateMutability": "nonpayable",
      "type": "function"
    },
    {
      "constant": false,
      "inputs": [
        {
          "name": "_tokenId",
          "type": "uint256"
        },
        {
          "name": "_price",
          "type": "uint256"
        }
      ],
      "name": "sellToken",
      "outputs": [],
      "payable": false,
      "stateMutability": "nonpayable",
      "type": "function"
    },
    {
      "constant": false,
      "inputs": [
        {
          "name": "_tokenId",
          "type": "uint256"
        }
      ],
      "name": "buyToken",
      "outputs": [],
      "payable": true,
      "stateMutability": "payable",
      "type": "function"
    },
    {
      "constant": false,
      "inputs": [
        {
          "name": "_tokenId",
          "type": "uint256"
        }
      ],
      "name": "removeTokenFromSale",
      "outputs": [],
      "payable": false,
      "stateMutability": "nonpayable",
      "type": "function"
    },
    {
      "constant": false,
      "inputs": [
        {
          "name": "_tokenId",
          "type": "uint256"
        },
        {
          "name": "_newColors",
          "type": "string"
        }
      ],
      "name": "setTokenPixelsColors",
      "outputs": [],
      "payable": false,
      "stateMutability": "nonpayable",
      "type": "function"
    }
  ],
  "bytecode": "0x60806040526040805190810160405280601781526020017f5368616e6772692d4c61205669727475616c4c616e647300000000000000000081525060059080519060200190620000519291906200015b565b506040805190810160405280600c81526020017fe9a699e6a0bce9878ce68b890000000000000000000000000000000000000000815250600690805190602001906200009f9291906200015b565b506040805190810160405280600381526020017f564c73000000000000000000000000000000000000000000000000000000000081525060079080519060200190620000ed9291906200015b565b50348015620000fb57600080fd5b5033600860006101000a81548173ffffffffffffffffffffffffffffffffffffffff021916908373ffffffffffffffffffffffffffffffffffffffff16021790555061271060098190555067016345785d8a0000600a819055506200020a565b828054600181600116156101000203166002900490600052602060002090601f016020900481019282601f106200019e57805160ff1916838001178555620001cf565b82800160010185558215620001cf579182015b82811115620001ce578251825591602001919060010190620001b1565b5b509050620001de9190620001e2565b5090565b6200020791905b8082111562000203576000816000905550600101620001e9565b5090565b90565b6127b5806200021a6000396000f300608060405260043610610175576000357c0100000000000000000000000000000000000000000000000000000000900463ffffffff16806301c6adc31461017a57806306fdde03146101c7578063095ea7b3146102575780630ee8d85a146102a457806318160ddd1461034a5780631897bcf3146103755780631d0806ae146103ac578063246a908b146103d75780632a6dd48f1461044a5780632d296bf1146104b757806332ee72b6146104d75780633ccfd60b1461057d578063416f3314146105945780635972dbf3146106245780635a3f2672146106975780635ae2affe1461072f5780636352211e1461077057806370a08231146107dd5780638d6a48f0146108345780638da5cb5b1461085457806395d89b41146108ab5780639bbe3ada1461093b5780639f4ba0ee14610968578063a400b74d14610995578063a9059cbb14610a08578063b9b18bd914610a55578063bac21a2214610aac578063e620d69f14610ad7578063e8cdea1114610b7d575b600080fd5b34801561018657600080fd5b506101c5600480360381019080803573ffffffffffffffffffffffffffffffffffffffff16906020019092919080359060200190929190505050610baa565b005b3480156101d357600080fd5b506101dc610d1d565b6040518080602001828103825283818151815260200191508051906020019080838360005b8381101561021c578082015181840152602081019050610201565b50505050905090810190601f1680156102495780820380516001836020036101000a031916815260200191505b509250505060405180910390f35b34801561026357600080fd5b506102a2600480360381019080803573ffffffffffffffffffffffffffffffffffffffff16906020019092919080359060200190929190505050610dbb565b005b3480156102b057600080fd5b506102cf60048036038101908080359060200190929190505050610f77565b6040518080602001828103825283818151815260200191508051906020019080838360005b8381101561030f5780820151818401526020810190506102f4565b50505050905090810190601f16801561033c5780820380516001836020036101000a031916815260200191505b509250505060405180910390f35b34801561035657600080fd5b5061035f611027565b6040518082815260200191505060405180910390f35b34801561038157600080fd5b506103aa6004803603810190808035906020019092919080359060200190929190505050611030565b005b3480156103b857600080fd5b506103c1611148565b6040518082815260200191505060405180910390f35b3480156103e357600080fd5b5061044860048036038101908080359060200190929190803590602001908201803590602001908080601f0160208091040260200160405190810160405280939291908181526020018383808284378201915050505050509192919290505050611152565b005b34801561045657600080fd5b506104756004803603810190808035906020019092919050505061123f565b604051808273ffffffffffffffffffffffffffffffffffffffff1673ffffffffffffffffffffffffffffffffffffffff16815260200191505060405180910390f35b6104d56004803603810190808035906020019092919050505061127c565b005b3480156104e357600080fd5b5061050260048036038101908080359060200190929190505050611534565b6040518080602001828103825283818151815260200191508051906020019080838360005b83811015610542578082015181840152602081019050610527565b50505050905090810190601f16801561056f5780820380516001836020036101000a031916815260200191505b509250505060405180910390f35b34801561058957600080fd5b506105926115e4565b005b3480156105a057600080fd5b506105a96116b7565b6040518080602001828103825283818151815260200191508051906020019080838360005b838110156105e95780820151818401526020810190506105ce565b50505050905090810190601f1680156106165780820380516001836020036101000a031916815260200191505b509250505060405180910390f35b34801561063057600080fd5b5061069560048036038101908080359060200190929190803590602001908201803590602001908080601f0160208091040260200160405190810160405280939291908181526020018383808284378201915050505050509192919290505050611755565b005b3480156106a357600080fd5b506106d8600480360381019080803573ffffffffffffffffffffffffffffffffffffffff169060200190929190505050611842565b6040518080602001828103825283818151815260200191508051906020019060200280838360005b8381101561071b578082015181840152602081019050610700565b505050509050019250505060405180910390f35b34801561073b57600080fd5b5061075a600480360381019080803590602001909291905050506118d9565b6040518082815260200191505060405180910390f35b34801561077c57600080fd5b5061079b600480360381019080803590602001909291905050506118f1565b604051808273ffffffffffffffffffffffffffffffffffffffff1673ffffffffffffffffffffffffffffffffffffffff16815260200191505060405180910390f35b3480156107e957600080fd5b5061081e600480360381019080803573ffffffffffffffffffffffffffffffffffffffff16906020019092919050505061192e565b6040518082815260200191505060405180910390f35b6108526004803603810190808035906020019092919050505061197a565b005b34801561086057600080fd5b50610869611ba3565b604051808273ffffffffffffffffffffffffffffffffffffffff1673ffffffffffffffffffffffffffffffffffffffff16815260200191505060405180910390f35b3480156108b757600080fd5b506108c0611bc9565b6040518080602001828103825283818151815260200191508051906020019080838360005b838110156109005780820151818401526020810190506108e5565b50505050905090810190601f16801561092d5780820380516001836020036101000a031916815260200191505b509250505060405180910390f35b34801561094757600080fd5b5061096660048036038101908080359060200190929190505050611c67565b005b34801561097457600080fd5b5061099360048036038101908080359060200190929190505050611dd2565b005b3480156109a157600080fd5b50610a0660048036038101908080359060200190929190803590602001908201803590602001908080601f0160208091040260200160405190810160405280939291908181526020018383808284378201915050505050509192919290505050611ed8565b005b348015610a1457600080fd5b50610a53600480360381019080803573ffffffffffffffffffffffffffffffffffffffff16906020019092919080359060200190929190505050611fc5565b005b348015610a6157600080fd5b50610a96600480360381019080803573ffffffffffffffffffffffffffffffffffffffff1690602001909291905050506120ff565b6040518082815260200191505060405180910390f35b348015610ab857600080fd5b50610ac1612117565b6040518082815260200191505060405180910390f35b348015610ae357600080fd5b50610b0260048036038101908080359060200190929190505050612121565b6040518080602001828103825283818151815260200191508051906020019080838360005b83811015610b42578082015181840152602081019050610b27565b50505050905090810190601f168015610b6f5780820380516001836020036101000a031916815260200191505b509250505060405180910390f35b348015610b8957600080fd5b50610ba8600480360381019080803590602001909291905050506121d1565b005b80600073ffffffffffffffffffffffffffffffffffffffff16610bcc826118f1565b73ffffffffffffffffffffffffffffffffffffffff1614151515610bef57600080fd5b3373ffffffffffffffffffffffffffffffffffffffff166004600084815260200190815260200160002060009054906101000a900473ffffffffffffffffffffffffffffffffffffffff1673ffffffffffffffffffffffffffffffffffffffff16141515610c5c57600080fd5b600073ffffffffffffffffffffffffffffffffffffffff168373ffffffffffffffffffffffffffffffffffffffff1614151515610c9857600080fd5b8273ffffffffffffffffffffffffffffffffffffffff16610cb8836118f1565b73ffffffffffffffffffffffffffffffffffffffff167fddf252ad1be2c89b69c2b068fc378daa952ba7f163c4a11628f55a4df523b3ef846040518082815260200191505060405180910390a3610d18610d11836118f1565b84846122d2565b505050565b60058054600181600116156101000203166002900480601f016020809104026020016040519081016040528092919081815260200182805460018160011615610100020316600290048015610db35780601f10610d8857610100808354040283529160200191610db3565b820191906000526020600020905b815481529060010190602001808311610d9657829003601f168201915b505050505081565b80600073ffffffffffffffffffffffffffffffffffffffff16610ddd826118f1565b73ffffffffffffffffffffffffffffffffffffffff1614151515610e0057600080fd5b813373ffffffffffffffffffffffffffffffffffffffff16610e21826118f1565b73ffffffffffffffffffffffffffffffffffffffff16141515610e4357600080fd5b8373ffffffffffffffffffffffffffffffffffffffff163373ffffffffffffffffffffffffffffffffffffffff1614151515610e7e57600080fd5b600073ffffffffffffffffffffffffffffffffffffffff168473ffffffffffffffffffffffffffffffffffffffff1614151515610eba57600080fd5b836004600085815260200190815260200160002060006101000a81548173ffffffffffffffffffffffffffffffffffffffff021916908373ffffffffffffffffffffffffffffffffffffffff1602179055508373ffffffffffffffffffffffffffffffffffffffff163373ffffffffffffffffffffffffffffffffffffffff167f8c5be1e5ebec7d5bd14f71427d1e84f3dd0314c0f7b2291e5b200ac8c7c3b925856040518082815260200191505060405180910390a350505050565b600c6020528060005260406000206000915090508054600181600116156101000203166002900480601f01602080910402602001604051908101604052809291908181526020018280546001816001161561010002031660029004801561101f5780601f10610ff45761010080835404028352916020019161101f565b820191906000526020600020905b81548152906001019060200180831161100257829003601f168201915b505050505081565b60008054905090565b81600073ffffffffffffffffffffffffffffffffffffffff16611052826118f1565b73ffffffffffffffffffffffffffffffffffffffff161415151561107557600080fd5b823373ffffffffffffffffffffffffffffffffffffffff16611096826118f1565b73ffffffffffffffffffffffffffffffffffffffff161415156110b857600080fd5b836000600f6000838152602001908152602001600020541415156110db57600080fd5b6000841115156110ea57600080fd5b83600f6000878152602001908152602001600020819055507f48dfbd5e8c7a96b0c2dca11f83effeae25a0702dbff54c23fa88c97e8567b5428585604051808381526020018281526020019250505060405180910390a15050505050565b6000600a54905090565b81600073ffffffffffffffffffffffffffffffffffffffff16611174826118f1565b73ffffffffffffffffffffffffffffffffffffffff161415151561119757600080fd5b823373ffffffffffffffffffffffffffffffffffffffff166111b8826118f1565b73ffffffffffffffffffffffffffffffffffffffff161415156111da57600080fd5b82600c600086815260200190815260200160002090805190602001906112019291906126b8565b507f87e9b2850affbb64e3d3018b4ee69bc1126ef9d97c1f68b7d05b28d9c415e084846040518082815260200191505060405180910390a150505050565b60006004600083815260200190815260200160002060009054906101000a900473ffffffffffffffffffffffffffffffffffffffff169050919050565b80600073ffffffffffffffffffffffffffffffffffffffff1661129e826118f1565b73ffffffffffffffffffffffffffffffffffffffff16141515156112c157600080fd5b816000600f6000838152602001908152602001600020541115156112e457600080fd5b823373ffffffffffffffffffffffffffffffffffffffff16611305826118f1565b73ffffffffffffffffffffffffffffffffffffffff161415151561132857600080fd5b600f600085815260200190815260200160002054341015151561134a57600080fd5b6000600f60008681526020019081526020016000208190555061137d66038d7ea4c680003461231790919063ffffffff16565b600e600061138a876118f1565b73ffffffffffffffffffffffffffffffffffffffff1673ffffffffffffffffffffffffffffffffffffffff1681526020019081526020016000208190555061144366038d7ea4c68000600e6000600860009054906101000a900473ffffffffffffffffffffffffffffffffffffffff1673ffffffffffffffffffffffffffffffffffffffff1673ffffffffffffffffffffffffffffffffffffffff1681526020019081526020016000205461233090919063ffffffff16565b600e6000600860009054906101000a900473ffffffffffffffffffffffffffffffffffffffff1673ffffffffffffffffffffffffffffffffffffffff1673ffffffffffffffffffffffffffffffffffffffff168152602001908152602001600020819055506114bb6114b4856118f1565b33866122d2565b7f80a902903a432d55fa4aacba4be2a79821bf5a27a98c69f914cfd93b1bd40aaf843433604051808481526020018381526020018273ffffffffffffffffffffffffffffffffffffffff1673ffffffffffffffffffffffffffffffffffffffff168152602001935050505060405180910390a150505050565b600b6020528060005260406000206000915090508054600181600116156101000203166002900480601f0160208091040260200160405190810160405280929190818152602001828054600181600116156101000203166002900480156115dc5780601f106115b1576101008083540402835291602001916115dc565b820191906000526020600020905b8154815290600101906020018083116115bf57829003601f168201915b505050505081565b6000600e60003373ffffffffffffffffffffffffffffffffffffffff1673ffffffffffffffffffffffffffffffffffffffff1681526020019081526020016000205490506000600e60003373ffffffffffffffffffffffffffffffffffffffff1673ffffffffffffffffffffffffffffffffffffffff168152602001908152602001600020819055503373ffffffffffffffffffffffffffffffffffffffff166108fc829081150290604051600060405180830381858888f193505050501580156116b3573d6000803e3d6000fd5b5050565b60068054600181600116156101000203166002900480601f01602080910402602001604051908101604052809291908181526020018280546001816001161561010002031660029004801561174d5780601f106117225761010080835404028352916020019161174d565b820191906000526020600020905b81548152906001019060200180831161173057829003601f168201915b505050505081565b81600073ffffffffffffffffffffffffffffffffffffffff16611777826118f1565b73ffffffffffffffffffffffffffffffffffffffff161415151561179a57600080fd5b823373ffffffffffffffffffffffffffffffffffffffff166117bb826118f1565b73ffffffffffffffffffffffffffffffffffffffff161415156117dd57600080fd5b82600d600086815260200190815260200160002090805190602001906118049291906126b8565b507f6b920363d4b9197377bd87e528b12823202fbd8411c922311e5a58d0d2021d8b846040518082815260200191505060405180910390a150505050565b6060600260008373ffffffffffffffffffffffffffffffffffffffff1673ffffffffffffffffffffffffffffffffffffffff1681526020019081526020016000208054806020026020016040519081016040528092919081815260200182805480156118cd57602002820191906000526020600020905b8154815260200190600101908083116118b9575b50505050509050919050565b600f6020528060005260406000206000915090505481565b60006001600083815260200190815260200160002060009054906101000a900473ffffffffffffffffffffffffffffffffffffffff169050919050565b6000600260008373ffffffffffffffffffffffffffffffffffffffff1673ffffffffffffffffffffffffffffffffffffffff168152602001908152602001600020805490509050919050565b80600073ffffffffffffffffffffffffffffffffffffffff166001600083815260200190815260200160002060009054906101000a900473ffffffffffffffffffffffffffffffffffffffff1673ffffffffffffffffffffffffffffffffffffffff161415156119e957600080fd5b600a5434141515611a88576040517f08c379a000000000000000000000000000000000000000000000000000000000815260040180806020018281038252602a8152602001807f76616c75652073656e74206d7573742062652065786163746c7920657175616c81526020017f7320746f2070726963650000000000000000000000000000000000000000000081525060400191505060405180910390fd5b6009548211151515611a9957600080fd5b34600e6000600860009054906101000a900473ffffffffffffffffffffffffffffffffffffffff1673ffffffffffffffffffffffffffffffffffffffff1673ffffffffffffffffffffffffffffffffffffffff16815260200190815260200160002060008282540192505081905550611b12823361234c565b611b1c33836123a2565b600160008082825401925050819055507f80a902903a432d55fa4aacba4be2a79821bf5a27a98c69f914cfd93b1bd40aaf823433604051808481526020018381526020018273ffffffffffffffffffffffffffffffffffffffff1673ffffffffffffffffffffffffffffffffffffffff168152602001935050505060405180910390a15050565b600860009054906101000a900473ffffffffffffffffffffffffffffffffffffffff1681565b60078054600181600116156101000203166002900480601f016020809104026020016040519081016040528092919081815260200182805460018160011615610100020316600290048015611c5f5780601f10611c3457610100808354040283529160200191611c5f565b820191906000526020600020905b815481529060010190602001808311611c4257829003601f168201915b505050505081565b80600073ffffffffffffffffffffffffffffffffffffffff16611c89826118f1565b73ffffffffffffffffffffffffffffffffffffffff1614151515611cac57600080fd5b813373ffffffffffffffffffffffffffffffffffffffff16611ccd826118f1565b73ffffffffffffffffffffffffffffffffffffffff16141515611cef57600080fd5b600073ffffffffffffffffffffffffffffffffffffffff166004600085815260200190815260200160002060009054906101000a900473ffffffffffffffffffffffffffffffffffffffff1673ffffffffffffffffffffffffffffffffffffffff1614151515611d5e57600080fd5b611d678361247c565b600073ffffffffffffffffffffffffffffffffffffffff163373ffffffffffffffffffffffffffffffffffffffff167f8c5be1e5ebec7d5bd14f71427d1e84f3dd0314c0f7b2291e5b200ac8c7c3b925856040518082815260200191505060405180910390a3505050565b600860009054906101000a900473ffffffffffffffffffffffffffffffffffffffff1673ffffffffffffffffffffffffffffffffffffffff163373ffffffffffffffffffffffffffffffffffffffff16141515611e97576040517f08c379a00000000000000000000000000000000000000000000000000000000081526004018080602001828103825260208152602001807f4f6e6c7920746865206f776e6572207065726d697474656420746f2063616c6c81525060200191505060405180910390fd5b80600a819055507f2e04f20f7d98a1519376a9f26379422760c4519f5920757040812ccd70dbc6e0816040518082815260200191505060405180910390a150565b81600073ffffffffffffffffffffffffffffffffffffffff16611efa826118f1565b73ffffffffffffffffffffffffffffffffffffffff1614151515611f1d57600080fd5b823373ffffffffffffffffffffffffffffffffffffffff16611f3e826118f1565b73ffffffffffffffffffffffffffffffffffffffff16141515611f6057600080fd5b82600b60008681526020019081526020016000209080519060200190611f879291906126b8565b507f014feefef3d14a4f8a1fb65024ed497652ce241647fa51b88d10edcb4cd3b852846040518082815260200191505060405180910390a150505050565b80600073ffffffffffffffffffffffffffffffffffffffff16611fe7826118f1565b73ffffffffffffffffffffffffffffffffffffffff161415151561200a57600080fd5b813373ffffffffffffffffffffffffffffffffffffffff1661202b826118f1565b73ffffffffffffffffffffffffffffffffffffffff1614151561204d57600080fd5b600073ffffffffffffffffffffffffffffffffffffffff168473ffffffffffffffffffffffffffffffffffffffff161415151561208957600080fd5b6120943385856122d2565b8373ffffffffffffffffffffffffffffffffffffffff163373ffffffffffffffffffffffffffffffffffffffff167fddf252ad1be2c89b69c2b068fc378daa952ba7f163c4a11628f55a4df523b3ef856040518082815260200191505060405180910390a350505050565b600e6020528060005260406000206000915090505481565b6000600954905090565b600d6020528060005260406000206000915090508054600181600116156101000203166002900480601f0160208091040260200160405190810160405280929190818152602001828054600181600116156101000203166002900480156121c95780601f1061219e576101008083540402835291602001916121c9565b820191906000526020600020905b8154815290600101906020018083116121ac57829003601f168201915b505050505081565b80600073ffffffffffffffffffffffffffffffffffffffff166121f3826118f1565b73ffffffffffffffffffffffffffffffffffffffff161415151561221657600080fd5b813373ffffffffffffffffffffffffffffffffffffffff16612237826118f1565b73ffffffffffffffffffffffffffffffffffffffff1614151561225957600080fd5b826000600f60008381526020019081526020016000205411151561227c57600080fd5b6000600f6000868152602001908152602001600020819055507fe4e97fb1e5ca0426d6f22dde5a4750bcbf8317d2b96a51a3e73b6f2329dd4f3a846040518082815260200191505060405180910390a150505050565b6122db8161247c565b6122e583826124d2565b6000600f600083815260200190815260200160002081905550612308818361234c565b61231282826123a2565b505050565b600082821115151561232557fe5b818303905092915050565b6000818301905082811015151561234357fe5b80905092915050565b806001600084815260200190815260200160002060006101000a81548173ffffffffffffffffffffffffffffffffffffffff021916908373ffffffffffffffffffffffffffffffffffffffff1602179055505050565b600260008373ffffffffffffffffffffffffffffffffffffffff1673ffffffffffffffffffffffffffffffffffffffff1681526020019081526020016000208190806001815401808255809150509060018203906000526020600020016000909192909190915055506124616001600260008573ffffffffffffffffffffffffffffffffffffffff1673ffffffffffffffffffffffffffffffffffffffff1681526020019081526020016000208054905061231790919063ffffffff16565b60036000838152602001908152602001600020819055505050565b60006004600083815260200190815260200160002060006101000a81548173ffffffffffffffffffffffffffffffffffffffff021916908373ffffffffffffffffffffffffffffffffffffffff16021790555050565b6000806000600260008673ffffffffffffffffffffffffffffffffffffffff1673ffffffffffffffffffffffffffffffffffffffff16815260200190815260200160002080549050925060036000858152602001908152602001600020549150600260008673ffffffffffffffffffffffffffffffffffffffff1673ffffffffffffffffffffffffffffffffffffffff1681526020019081526020016000206001840381548110151561258157fe5b9060005260206000200154905080600260008773ffffffffffffffffffffffffffffffffffffffff1673ffffffffffffffffffffffffffffffffffffffff168152602001908152602001600020838154811015156125db57fe5b9060005260206000200181905550816003600083815260200190815260200160002081905550600260008673ffffffffffffffffffffffffffffffffffffffff1673ffffffffffffffffffffffffffffffffffffffff1681526020019081526020016000206001840381548110151561265057fe5b9060005260206000200160009055600260008673ffffffffffffffffffffffffffffffffffffffff1673ffffffffffffffffffffffffffffffffffffffff1681526020019081526020016000208054809190600190036126b09190612738565b505050505050565b828054600181600116156101000203166002900490600052602060002090601f016020900481019282601f106126f957805160ff1916838001178555612727565b82800160010185558215612727579182015b8281111561272657825182559160200191906001019061270b565b5b5090506127349190612764565b5090565b81548183558181111561275f5781836000526020600020918201910161275e9190612764565b5b505050565b61278691905b8082111561278257600081600090555060010161276a565b5090565b905600a165627a7a72305820154e380b19e793cc810b120d7318c5afaaf9a9cf4a3f5a5eca64831add3deda00029",
  "source": "pragma solidity ^0.4.24;\r\n\r\nimport \"./ERC721Simple.sol\";\r\n\r\n  \t/**\r\n\t * @title VitualLands of Shangeri-La\r\n\t *\r\n\t * A script that manages 10 000 tokens that represents a piece of vitual land within Shangeri-La.\r\n\t */\r\n\r\ncontract  VirtualLands is ERC721Simple {\r\n\r\n    // -----------------------------------------------------------------------------------------------------------\r\n    // ------------------------------------------------ Variables ------------------------------------------------\r\n    // ----------------------------------------------------------------------------------------------------------- \r\n\r\n    string public name = \"Shangri-La VirtualLands\";\r\n    string public cnName = \"\";    \r\n    string public symbol = \"VLs\";\r\n\t\r\n\t// the one who deployed the smart contract\r\n    address public owner;\t\r\n\t\r\n\t// the limit of totalSupply of tokens representing vituallands.\r\n    uint256 public totalSupplyLimit;\r\n\t\r\n\t// the price in wei, for the initial sale of virtuallands\r\n    uint256 public initialPrice;\r\n\t\r\n\t// white for \"not owned by anyone\" ,  green for \"owned\", blue for \"owned and for sale\".\r\n    mapping(uint => string) public tokenToPixelsColors;  \r\n\t\r\n\t// A string set and modified by land owner.\r\n    mapping(uint => string) public tokenToDescription;\r\n\t\r\n\t// A link set by owner to the description of his land;\r\n    mapping(uint => string) public tokenToLink;  \r\n\r\n    // The ether balance of all users of the smart contract\r\n    mapping(address => uint) public BalanceOfEther;\r\n\t\r\n\t// if equals zero, it's not up for sale\r\n    mapping(uint => uint) public tokenToSalePrice; \r\n\r\n    // -----------------------------------------------------------------------------------------------------------\r\n    // -------------------------------------------------- Events -------------------------------------------------\r\n    // -----------------------------------------------------------------------------------------------------------\r\n\r\n    event EmitUpForSale(uint256 _tokenId, uint256 _price);\r\n    event EmitBought(uint256 _tokenId, uint256 _at, address _by);\r\n    event EmitSaleOfferRemoved(uint256 _tokenId);\r\n    event EmitSetInitialPrice(uint256 _initialPrice);\r\n    event EmitChangedPixelsColors(uint256 _tokenId);    \r\n    event EmitChangedDescription(uint256 _tokenId);\r\n    event EmitChangedLink(uint256 _tokenId);\r\n\r\n    // -----------------------------------------------------------------------------------------------------------\r\n    // -------------------------------------------------- Modifiers ----------------------------------------------\r\n    // -----------------------------------------------------------------------------------------------------------\r\n\r\n    modifier onlyOwner() {\r\n        require(msg.sender == owner, \"Only the owner permitted to call\");\r\n        _;\r\n    }\r\n    \r\n    modifier onlyNonexistentToken(uint _tokenId) {\r\n        require(tokenIdToOwner[_tokenId] == address(0));\r\n        _;\r\n    }\r\n\r\n    modifier isUpForSale(uint _tokenId) {\r\n        require(tokenToSalePrice[_tokenId] > 0);\r\n        _;\r\n    }\r\n\r\n    modifier isNotUpForSale(uint _tokenId) {\r\n        require(tokenToSalePrice[_tokenId] == 0);\r\n        _;\r\n    }\r\n\r\n    modifier onlyNotOwnerOfToken(uint _tokenId) {\r\n        require(ownerOf(_tokenId) != msg.sender);\r\n        _;\r\n    }\r\n\r\n    // -----------------------------------------------------------------------------------------------------------\r\n    // ------------------------------------------------- Constructor ---------------------------------------------\r\n    // -----------------------------------------------------------------------------------------------------------\r\n\r\n    constructor () public {\r\n        owner = msg.sender;\r\n        totalSupplyLimit = 10000;\r\n        initialPrice = 100000000000000000;  //  0.1 eth = 100 finney\r\n    }\r\n\r\n    // -----------------------------------------------------------------------------------------------------------\r\n    // ------------------------------------------------ View functions -------------------------------------------\r\n    // -----------------------------------------------------------------------------------------------------------\r\n\r\n    /// @dev Gets the total supply limit of the virtual land tokens\r\n    function totalSupplyLimit() public view returns (uint256) {\r\n        return totalSupplyLimit;\r\n    }\r\n\r\n    /// @dev Gets the price for initial supply of virtual lands\r\n    function initialPrice() public view returns (uint256) {\r\n        return initialPrice;\r\n    }\r\n\r\n    // -----------------------------------------------------------------------------------------------------------\r\n    // --------------------------------------------- Core Public functions ---------------------------------------\r\n    // -----------------------------------------------------------------------------------------------------------\r\n\r\n    /// @dev Initial acquisition of the token\r\n    function initialBuyToken (uint _tokenId) payable public onlyNonexistentToken (_tokenId) {\r\n        \r\n        require(msg.value == initialPrice, \"value sent must be exactly equals to price\");  \r\n        require(_tokenId <= totalSupplyLimit);\r\n\r\n        BalanceOfEther[owner] += msg.value;\r\n\r\n        _setTokenOwner(_tokenId, msg.sender);\r\n        _addTokenToOwnersList(msg.sender, _tokenId);\r\n\r\n        totalSupply += 1;\r\n\r\n        emit EmitBought(_tokenId, msg.value, msg.sender);\r\n    }\r\n\t\r\n\t/// @dev changing the initialprice for sale, can only be called by owner\r\n    /// @notice the _initialPrice is in Wei\r\n    function setInitialPrice (uint _initialPrice) public onlyOwner() {\r\n        initialPrice = _initialPrice;\r\n        emit EmitSetInitialPrice(_initialPrice);\r\n    }\r\n\r\n    /// @dev changing the description of the token\r\n    function setTokenDescription (uint _tokenId, string _newDescription) public onlyExtantToken (_tokenId) onlyOwnerOfToken (_tokenId) {\r\n        tokenToDescription[_tokenId] = _newDescription;\r\n        emit EmitChangedDescription(_tokenId);\r\n    }\r\n\r\n    /// @dev changing the link of the token\r\n    function setTokenLink (uint _tokenId, string _newLink) public onlyExtantToken (_tokenId) onlyOwnerOfToken (_tokenId) {\r\n        tokenToLink[_tokenId] = _newLink;\r\n        emit EmitChangedLink(_tokenId);\r\n    }\r\n\r\n    /// @dev withdraw ether off the contract\r\n    function withdraw() public\r\n    {\r\n        uint amount = BalanceOfEther[msg.sender];\r\n        BalanceOfEther[msg.sender] = 0;\r\n        msg.sender.transfer(amount);\r\n    }\r\n\r\n    /// @dev putting token up for sale\r\n    /// @notice the _price is in Wei\r\n    function sellToken (uint _tokenId, uint _price) public onlyExtantToken (_tokenId) onlyOwnerOfToken (_tokenId) isNotUpForSale(_tokenId) {\r\n        require(_price > 0);\r\n\r\n        tokenToSalePrice[_tokenId] = _price;\r\n\r\n        emit EmitUpForSale(_tokenId, _price);\r\n    }\r\n\r\n    /// @dev buying token from someone\r\n    function buyToken (uint _tokenId) payable public onlyExtantToken (_tokenId) isUpForSale (_tokenId) onlyNotOwnerOfToken (_tokenId) {\r\n        require(msg.value >= tokenToSalePrice[_tokenId]);\r\n\r\n        tokenToSalePrice[_tokenId] = 0;\r\n        BalanceOfEther[ownerOf(_tokenId)] = msg.value.sub(1000000000000000); // substracts 1 finney \r\n        BalanceOfEther[owner] = BalanceOfEther[owner].add(1000000000000000); // transfer fee to owner\r\n        _clearApprovalAndTransfer(ownerOf(_tokenId), msg.sender, _tokenId);\r\n\r\n        emit EmitBought(_tokenId, msg.value, msg.sender);\r\n    }\r\n\r\n    /// @dev removing a sale proposition\r\n    function removeTokenFromSale (uint _tokenId) public onlyExtantToken (_tokenId) onlyOwnerOfToken (_tokenId) isUpForSale (_tokenId) {\r\n        tokenToSalePrice[_tokenId] = 0;\r\n        emit EmitSaleOfferRemoved(_tokenId);\r\n    }\r\n\r\n    /// @dev changing the colors of the token\r\n    function setTokenPixelsColors (uint _tokenId, string _newColors) public onlyExtantToken (_tokenId) onlyOwnerOfToken (_tokenId) {\r\n        tokenToPixelsColors[_tokenId] = _newColors;\r\n        emit EmitChangedPixelsColors(_tokenId);\r\n    }\r\n\r\n    // -----------------------------------------------------------------------------------------------------------\r\n    // ----------------------------------------------- Internal functions ----------------------------------------\r\n    // -----------------------------------------------------------------------------------------------------------\r\n\r\n    // calls all the internal functions above, to transfer a token from one user to another\r\n    // changed to nullify the selling offer when a token changes hands\r\n    function _clearApprovalAndTransfer(address _from, address _to, uint _tokenId) internal\r\n    {\r\n        _clearTokenApproval(_tokenId);\r\n        _removeTokenFromOwnersList(_from, _tokenId);\r\n\r\n        tokenToSalePrice[_tokenId] = 0;\r\n\r\n        _setTokenOwner(_tokenId, _to);\r\n        _addTokenToOwnersList(_to, _tokenId);\r\n    }\r\n}",
  "sourcePath": "K:\\dapp\\Shangri-La-Contracts\\contracts\\VirtualLands.sol",
  "compiler": {
    "name": "solc",
    "version": "0.4.24+commit.e67f0147.Emscripten.clang"
  },
  "schemaVersion": "2.0.1",
  "updatedAt": "2018-07-24T14:42:21.066Z"
}